:100000000C94AE000C94D6000C94D6000C94D60040
:100010000C94D6000C94D6000C94D6000C94D60008
:100020000C94D6000C94D6000C9429100C94C20E9B
:100030000C94D6000C94D6000C94D6000C94D600E8
:100040000C94D6000C94D6000C94D6000C94D600D8
:100050000C94D6000C94D6000C94D6000C94830B10
:100060000C94D6000C943C080C946E080C94D600AA
:100070000C94D6000C94D6000C94D6000C94D600A8
:100080000C94D6000C94D6000C94D6000C94D60098
:100090000C94D6000C94D6000C94D6000C94D60088
:1000A0000C94D6000C94D6000C94D600084AD73B8A
:1000B0003BCE016E84BCBFFDC12F3D6C74319ABD37
:1000C00056833DDA3D00C77F11BED9E4BB4C3E915B
:1000D0006BAAAABE000000803F0012010002EF02DE
:1000E0000140FB1F0023000101020301506F6C6FF0
:1000F0006C7520412D537461722033325534005099
:100100006F6C6F6C7520436F72706F726174696F82
:100110006E0004030904080B000202020100090436
:100120000000010202000005240010010524010165
:1001300001042402060524060001070581031000BE
:100140004009040100020A00000007050202400005
:1001500000070583024000009313F01311241FBE13
:10016000CFEFDAE0DEBFCDBF11E0A0E0B1E0E2E723
:10017000FEE202C005900D92A23EB107D9F723E03E
:10018000A2EEB1E001C01D92A730B207E1F710E086
:10019000CEEAD0E004C02197FE010E943114CC3A8F
:1001A000D107C9F70E94D5130C9437170C9400009F
:1001B00026E040E855E260E070E088EF91E00E94C0
:1001C000B5070E94C3046FE08FE60E94BD0585E07D
:1001D00091E00E94B00680E091E00C94A0060E949D
:1001E00002060E941D058111FCCF0E942505809307
:1001F000F201811103C06DE271E004C0813031F47D
:1002000063E371E088EF91E00E9436090E946D0679
:100210008093F2010E94A60568EC70E080E090E017
:100220000C94FE0B4F925F926F927F928F929F92EF
:10023000AF92BF92CF92DF92EF92FF920F931F93F4
:10024000CF93DF9300D000D0CDB7DEB729833A83B8
:100250004B835C839B01AC01C801B7010E9437143A
:100260002B013C0129813A814B815C81C601B5019A
:100270000E9437144B015C01A30192010E94D81423
:100280000E94A4146B017C0120E030E0A901C301AD
:10029000B2010E94591687FD0EC020E030E0A9018E
:1002A000C501B4010E94D31487FF05C020E030E0EF
:1002B00040EC50E41FC020E030E0A901C301B201CE
:1002C0000E94D31487FF1CC020E030E0A901C501C3
:1002D000B4010E94591687FF09C020E030E0A9014F
:1002E000C501B4010E94D31487FF0AC020E030E0AA
:1002F00040E450E4C701B6010E9438146B017C0150
:1003000026E437E145E652E4C701B6010E946616CD
:100310000F900F900F900F90DF91CF911F910F9141
:10032000FF90EF90DF90CF90BF90AF909F908F9015
:100330007F906F905F904F9008954F925F926F9271
:100340007F928F929F92AF92BF92CF92DF92EF9265
:10035000FF920F931F93CF93DF9300D000D0CDB7C0
:10036000DEB729013A019B01AC01C801B7010E9427
:10037000371469837A838B839C83A3019201C6011E
:10038000B5010E9437146B017C0129813A814B81B0
:100390005C81CA01B9010E9466164B015C01A7018C
:1003A0009601C701B6010E9466169B01AC01C5010A
:1003B000B4010E9438140F900F900F900F90DF91AE
:1003C000CF911F910F91FF90EF90DF90CF90BF9052
:1003D000AF909F908F907F906F905F904F900C9414
:1003E000D916CF93DF9300D000D0CDB7DEB79B01F5
:1003F000AC0168EE73E080E090E029833A834B83A0
:100400005C830E94FE0B62ED70E08EE29FEF0E9423
:10041000891329813A814B815C8160E070E084EB33
:1004200093E40E94371423E333E343E850E40E944B
:1004300066160E9451150E94FE0B60E070E080E09D
:1004400090E00F900F900F900F90DF91CF910C9450
:1004500089134F925F926F927F92AF92BF92CF9229
:10046000DF92EF92FF920F931F93CF93DF93CDB75D
:10047000DEB760970FB6F894DEBF0FBECDBF6983BD
:100480007A838B839C832D833E834F835887E986B1
:10049000FA860B871C87AD86BE86CF86D88A0E94D7
:1004A00012012B013C012D813E814F8158856981CC
:1004B0007A818B819C810E949D016B017C0168EE99
:1004C00073E080E090E00E94FE0B62ED70E08EE24F
:1004D0009FEF0E94891323E333E343E850E4C30111
:1004E000B2010E9466160E944A15072E000C880B66
:1004F000990B0E94FE0B60E070E080E090E00E94AB
:10050000891362ED70E082ED90E00E94891320E093
:1005100030E048EC53E4C701B6010E9466160E9421
:100520004A15072E000C880B990B0E94FE0B60E009
:1005300070E080E090E00E948913C301B2016096F0
:100540000FB6F894DEBF0FBECDBFDF91CF911F91E4
:100550000F91FF90EF90DF90CF90BF90AF907F9082
:100560006F905F904F9008954F925F926F927F923D
:10057000AF92BF92CF92DF92EF92FF920F931F93B1
:10058000CF93DF93CDB7DEB72C970FB6F894DEBFCD
:100590000FBECDBF69837A838B839C832D833E837B
:1005A0004F83588727013801A986BA86CB86DC8617
:1005B0006DE371E088EF91E00E94360960ED77E02D
:1005C00080E090E00E94FE0BAD8CBE8CCF8CD8A05A
:1005D000E984FA840B851C852D813E814F815885E5
:1005E00069817A818B819C810E941201A301920111
:1005F0000E9437142B013C012D813E814F8158858B
:1006000069817A818B819C810E949D016B017C01B3
:1006100068EE73E080E090E00E94FE0B62ED70E017
:100620008EE29FEF0E94891323E333E343E850E413
:10063000C301B2010E9466160E944A15072E000CE3
:10064000880B990B0E94FE0B60E070E080E090E068
:100650000E94891362ED70E082ED90E00E948913A0
:1006600020E030E048EC53E4C701B6010E94661672
:100670000E944A15072E000C880B990B0E94FE0B56
:1006800060E070E080E090E00E948913C301B20155
:100690002C960FB6F894DEBF0FBECDBFDF91CF9181
:1006A0001F910F91FF90EF90DF90CF90BF90AF9090
:1006B0007F906F905F904F900895CF93DF93C5E048
:1006C000D0E06EE27FEF82ED90E00E94891364E655
:1006D00070E080E090E00E94FE0B62ED70E08EE240
:1006E0009FEF0E94891364E670E080E090E00E9432
:1006F000FE0B219731F760E070E080E090E0DF9141
:10070000CF910C9489134F925F926F927F92AF9228
:10071000BF92CF92DF92EF92FF920F931F93CF93EE
:10072000DF93CDB7DEB7A4970FB6F894DEBF0FBE48
:10073000CDBF85E091E00E94B00680E091E00E948C
:10074000A00685E18A8381E489838091EF019091FD
:10075000F0010A970CF5CE0101960E94EF0067E4C4
:1007600071E088EF91E00E94FB0840E150E0698170
:1007700088EF91E00E943C0A40E150E06A8188EFF6
:1007800091E00E94430A8091EF019091F00101965F
:100790009093F0018093EF010E940F0564E170E0F7
:1007A00080E090E00E94FE0B0E945F06882309F41F
:1007B000D5C083EF91E00E948E0568EC70E080E088
:1007C00090E00E94FE0B8091F301813539F0803674
:1007D00009F456C0803509F0C1C007C064E671E075
:1007E00088EF91E00E9436092CC040E150E060E5BE
:1007F00088EF91E00E943C0A40E150E06091F401F2
:1008000088EF91E00E943C0A40E150E06091F501E0
:1008100088EF91E00E94430A8091F5018F3F29F40F
:100820009091F4019F5F9093F4019091F3019F5F89
:100830009093F3018F5F8093F50183EF91E00E9425
:10084000EF0040E150E06091F30188EF91E00E94F9
:100850003C0A40E150E06091F40188EF91E00E9491
:100860003C0A40E150E06091F50188EF91E00E9480
:10087000430A81E090E090931901809318016EC0C3
:100880008091180190911901892B09F467C062E7E2
:1008900071E088EF91E00E94FB0840E150E0609138
:1008A000F40188EF91E00E94430A6AE771E088EF63
:1008B00091E00E94FB0840E150E06091F50188EF73
:1008C00091E00E94430A62E871E088EF91E00E94A3
:1008D000FB0840E150E06091F60188EF91E00E9452
:1008E000430A6091F40170E080E090E00E9480157E
:1008F0002B013C016091F60170E080E090E00E94E5
:1009000080159B01AC018091F501682F70E080E0BB
:1009100090E029A33AA34BA35CA30E9480151F92E9
:100920001F921F921F92A12CB12C650183017201AD
:1009300029A13AA14BA15CA10E94B4020E945D03CF
:100940006AE871E088EF91E00E943609109219017F
:10095000109218010F900F900F900F90A4960FB661
:10096000F894DEBF0FBECDBFDF91CF911F910F91E5
:10097000FF90EF90DF90CF90BF90AF907F906F90FF
:100980005F904F9008950E94BF0680E00E94C506C8
:1009900081E00C94CB068091F7010895EF92FF92CD
:1009A0000F931F93CF93E82E80E00E94D10607E0BB
:1009B00010E0C0E0F12CC701002E02C0959587958C
:1009C0000A94E2F780FF02C081E001C080E00E944B
:1009D000D70681E00E94D106CC0F0E94DD0681116E
:1009E000C16080E00E94D1060150110920F78C2FD0
:1009F000CF911F910F91FF90EF900895CF9380E0DA
:100A00000E94CB0680E60E94CE0480E00E94CE04C5
:100A1000C82F81E00E94CB068C2FCF910895CF93F1
:100A200080E00E94CB068FEF0E94CE04C82F81E0A9
:100A30000E94CB068C2FCF9108950E940F05982F0E
:100A4000907381E009F080E008950E940F0585FD14
:100A500004C084FD04C08FEF089580E0089581E014
:100A60000895CF92DF92FF920F931F93CF93DF935E
:100A70001F92CDB7DEB7F82E8B016C018C2D8F192C
:100A8000841758F4F60181916F0149830E94CE04C6
:100A9000F80181938F014981F1CF0F90DF91CF91C0
:100AA0001F910F91FF90DF90CF900895EF92FF92EA
:100AB0001F93CF93DF931F92CDB7DEB7182F7C0122
:100AC0008E2D811B861740F4F70181917F01698388
:100AD0000E94CE046981F4CF0F90DF91CF911F91D6
:100AE000FF90EF9008951F93CF93DF931F92CDB7A0
:100AF000DEB7182F80E069830E94CB06812F8F71AB
:100B000080620E94CE046981862F0E94CE0481E01B
:100B10000F90DF91CF911F910C94CB06CF93DF9371
:100B2000EC0180E00E94CB0681E60E94CE04409159
:100B3000F701BE01CE010E94310581E00E94CB0683
:100B400060E487E0DF91CF910C94730580E00E9410
:100B5000CB0682EE0E94CE0481E00E94CB0660E7C5
:100B600087E00E94730580E00E94C5066FE080E088
:100B70000E94730581E00C94C5066093F701682F0D
:100B800085E00E94730560E081E10E947305609139
:100B9000F70182E10E94730560E083E10E94730522
:100BA00060E084E10E94730560E085E10E947305C6
:100BB00060E086E10E94730562E086E00E947305B2
:100BC0006CE080E00E94730567E08DE10E94730590
:100BD00063E081E00E94730563E082E00E94730598
:100BE0006AE584E00E94730563E08CE10E9473056E
:100BF0000C94A60560E787E00E9473056EE080E034
:100C00000C947305CF93DF93EC0180E00E94C5063E
:100C10000E94FA0580E00E94CB0681EE0E94CE047D
:100C200081E00E94CB0680E00E94CB0680EA0E9411
:100C3000CE046091F701CE010E94560581E00E942A
:100C4000CB0681E0DF91CF910C94C50680E00E9435
:100C5000C5066CE080E00C947305EF92FF921F9341
:100C6000CF93DF931F92CDB7DEB7182F7B0180E0C3
:100C700049830E94CB06812F8F710E94CE04498147
:100C8000B701C7010E94310581E00F90DF91CF913C
:100C90001F91FF90EF900C94CB06CF93DF931F92A0
:100CA000CDB7DEB741E0BE016F5F7F4F87E10E94A5
:100CB0002D06898181700F90DF91CF9108950E9458
:100CC0000F0586FD07C00E944D0691E0882319F0AC
:100CD00090E001C091E0892F0895CF93DF931F9298
:100CE000CDB7DEB741E0BE016F5F7F4F88E00E9465
:100CF0002D0689818F700F90DF91CF910895FF921B
:100D00000F931F93CF93DF931F92CDB7DEB7F82ECB
:100D10008B0180E049830E94CB068F2D8F7180620A
:100D20000E94CE044981642FC8010E94560581E0CB
:100D30000F90DF91CF911F910F91FF900C94CB06F4
:100D4000CF93DF93EC0180E00E94C50645E0BE0131
:100D50008BE00E947F0681E0DF91CF910C94C50665
:100D6000CF93DF93EC0145E0BC018AE00E947F064F
:100D700045E0BE0180E1DF91CF910C947F063F9A60
:100D8000239A209A559A57980895882311F0479AE4
:100D9000089547980895882311F02B9A08952B9869
:100DA0000895882311F0289A089528980895882393
:100DB00011F05D9A08955D98089589B1807808953D
:100DC000FC01918D228D892F90E0805C9F4F821BCA
:100DD00091098F7399270895FC01918D828D981741
:100DE00031F0828DE80FF11D858D90E008958FEF31
:100DF0009FEF0895FC01918D828D981761F0828D8F
:100E0000DF01A80FB11D5D968C91928D9F5F9F733E
:100E1000928F90E008958FEF9FEF0895FC01538D1E
:100E2000448D252F30E0842F90E0821B930B5417C4
:100E300010F0CF9608950197089584E998E0892BE2
:100E400049F080E090E0892B29F00E9494088111FC
:100E50000C9400000895FC01848DDF01A80FB11DE2
:100E6000A35ABF4F2C91848D90E001968F739927E0
:100E7000848FA689B7892C93A089B1898C918064CD
:100E80008C93938D848D981306C00288F389E02D8E
:100E900080818F7D80830895CF93DF93EC01888DCF
:100EA0008823C9F0EA89FB89808185FD05C0A8896E
:100EB000B9898C9186FD0FC00FB607FCF5CF8081F4
:100EC00085FFF2CFA889B9898C9185FFEDCFCE013E
:100ED0000E942B07E7CFDF91CF910895EF92FF9209
:100EE0000F931F93CF93DF93EC0181E0888F9B8D4D
:100EF0008C8D981305C0E889F989808185FD24C00F
:100F0000F62E0B8D10E00F5F1F4F0F731127E02E91
:100F10008C8DE8120CC00FB607FCFACFE889F9896E
:100F2000808185FFF5CFCE010E942B07F1CF8B8DFD
:100F3000FE01E80FF11DE35AFF4FF0820B8FEA89A3
:100F4000FB898081806207C0EE89FF896083E88920
:100F5000F98980818064808381E090E0DF91CF9186
:100F60001F910F91FF90EF900895CF92DF92EF9233
:100F7000FF921F93CF93DF93EC016A017B01122F45
:100F8000E889F98982E080834115514E6105710538
:100F9000B1F060E079E08DE390E0A70196010E9456
:100FA0000F14DA01C9010197A109B109B695A795F6
:100FB00097958795AC01411580E15807A8F0E8891D
:100FC000F989108260E874E88EE190E0A70196014B
:100FD0000E940F14BA01A901415051096109710918
:100FE0007695679557954795EC85FD855083EE85F9
:100FF000FF854083188EEC89FD891083EA89FB897F
:10100000808180618083EA89FB8980818860808318
:10101000EA89FB89808180688083EA89FB898081F5
:101020008F7D8083DF91CF911F91FF90EF90DF90B4
:10103000CF900895CF93DF93EC01E881F98106808A
:10104000F781E02D0995EA89FB8980818F7E808375
:10105000EA89FB898081877F8083EA89FB89808197
:101060008F778083EA89FB8980818F7D80838A8D59
:10107000898FDF91CF9108951F920F920FB60F9233
:1010800011242F938F939F93EF93FF93E091080286
:10109000F09109028081E0910E02F0910F0282FD31
:1010A00012C09081809111028F5F8F732091120284
:1010B000821751F0E0911102F0E0E850FE4F958F59
:1010C0008093110201C08081FF91EF919F918F91D8
:1010D0002F910F900FBE0F901F9018951F920F9297
:1010E0000FB60F9211242F933F934F935F936F93FB
:1010F0007F938F939F93AF93BF93EF93FF9388EF6B
:1011000091E00E942B07FF91EF91BF91AF919F91CA
:101110008F917F916F915F914F913F912F910F90A0
:101120000FBE0F901F90189588EF91E00E94E00687
:1011300021E0892B09F420E0822F0895CF92DF92DD
:10114000EF92FF920F931F93CF93DF936C017A017D
:101150008B01C0E0D0E0CE15DF0589F0D8016D919C
:101160008D01D601ED91FC910190F081E02DC60139
:101170000995892B11F47E0102C02196ECCFC7019D
:10118000DF91CF911F910F91FF90EF90DF90CF9063
:101190000895EF92FF920F931F93CF93DF938C01EB
:1011A0007B01C0E0D0E0F701EC0FFD1F64916623E6
:1011B00061F0D801ED91FC910190F081E02DC80122
:1011C0000995892B11F02196EECFCE01DF91CF91B9
:1011D0001F910F91FF90EF900895DC01ED91FC912C
:1011E000DB0114964D915C9115976D917C91028075
:1011F000F381E02D09940C94C013DC01ED91FC9176
:101200000190F081E02D0994DB01ED91FC911197A3
:101210000190F081E02DBC01CD01099461EC71E0F9
:101220000C94C0130F931F93CF93DF93EC010E9494
:10123000C9088C01CE010E940E09800F911FDF9119
:10124000CF911F910F9108950F931F93CF93DF9329
:10125000EC010E94ED088C01CE010E940E09800F66
:10126000911FDF91CF911F910F9108950F931F93BD
:10127000CF93DF93EC010E94C0138C01CE010E943A
:101280000E09800F911FDF91CF911F910F9108954B
:101290000F931F93CF93DF93EC010E94FD088C0105
:1012A000CE010E940E09800F911FDF91CF911F91F7
:1012B0000F9108950F931F93CF93DF93EC010E943A
:1012C00004098C01CE010E940E09800F911FDF914D
:1012D000CF911F910F9108954F925F926F927F92DD
:1012E000EF92FF920F931F93CF93DF93CDB7DEB7AB
:1012F000A1970FB6F894DEBF0FBECDBF7C01FA01F7
:10130000CB0119A2223008F42AE08E010F5D1F4F95
:10131000422E512C612C712CBF01A30192010E941D
:101320000F14F901CA01015011096A3014F4605D0B
:1013300001C0695CD8016C93232B242B252B61F70A
:10134000B801C7010E94C013A1960FB6F894DEBF82
:101350000FBECDBFDF91CF911F910F91FF90EF9006
:101360007F906F905F904F900895CF92DF92EF92B1
:10137000FF920F931F93CF93DF93EC016A017B01E0
:101380002115310579F4E881F9810190F081E02D92
:10139000642FDF91CF911F910F91FF90EF90DF901D
:1013A000CF9009942A303105E9F477FF1AC06DE235
:1013B0000E94FD088C0144275527BA014C195D098C
:1013C0006E097F092AE0CE010E946C09800F911FEF
:1013D000DF91CF911F910F91FF90EF90DF90CF9011
:1013E00008952AE0B701A601CE01DF91CF911F91A8
:1013F0000F91FF90EF90DF90CF900C946C099A01C1
:10140000AB01770F660B770B0C94B5090F931F9305
:10141000CF93DF93EC019A01AB01770F660B770B4B
:101420000E94B5098C01CE010E940E09800F911F08
:10143000DF91CF911F910F9108950F931F93CF9339
:10144000DF93EC010E94B5098C01CE010E940E09C8
:10145000800F911FDF91CF911F910F91089521155A
:10146000310541F4DC01ED91FC910190F081E02D1A
:10147000642F09940C946C099A01462F50E060E0A7
:1014800070E00C942F0A0F931F93CF93DF93EC011E
:101490009A01462F50E060E070E00E942F0A8C0114
:1014A000CE010E940E09800F911FDF91CF911F91F5
:1014B0000F9108959A01AB0160E070E00C942F0A3F
:1014C0000F931F93CF93DF93EC019A01AB0160E080
:1014D00070E00E942F0A8C01CE010E940E09800F3D
:1014E000911FDF91CF911F910F9108950F931F933B
:1014F000CF93DF93EC010E942F0A8C01CE010E9452
:101500000E09800F911FDF91CF911F910F910895C8
:101510004F925F926F927F928F929F92AF92BF9203
:10152000CF92DF92EF92FF92CF93DF93EC016A01AB
:101530007B01B22E9A01AB01C701B6010E941D17B3
:10154000882319F064EC71E027C026013701E89484
:1015500077F82FEF3FEF4FE75FE7C301B2010E943B
:101560001D1781110DC02FEF3FEF4FE75FE7C3015C
:10157000B2010E94D31418161CF468EC71E00CC080
:101580002FEF3FEF4FE75FE4C701B6010E94591606
:1015900018169CF46CEC71E0CE01DF91CF91FF90B6
:1015A000EF90DF90CF90BF90AF909F908F907F9003
:1015B0006F905F904F900C94C0132FEF3FEF4FE769
:1015C0005FECC701B6010E94D31487FDE3CF20E092
:1015D00030E0A901C701B6010E94D31487FF0AC0F9
:1015E0006DE2CE010E94FD084C01F7FAF094F7F885
:1015F000F09402C0812C912CA12C60E070E080E07E
:101600009FE3AB1441F020E030E040E251E40E945F
:10161000D814A394F6CF9B01AC01C701B6010E9478
:1016200038142B013C010E9451156B017C010E9472
:1016300080159B01AC01C301B2010E9437142B013C
:101640003C012AE0B701A601CE010E946C097C0191
:10165000E80CF91CBB2031F06EE2CE010E94FD08BF
:10166000E80EF91EDB2CDD2029F120E030E040E21D
:1016700051E4C301B2010E9466162B013C010E9495
:1016800051154B01A12CB12C2AE0B501A401CE01CA
:101690000E946C09E80EF91EC501B4010E94801574
:1016A0009B01AC01C301B2010E9437142B013C0124
:1016B000DA94D9CFC701DF91CF91FF90EF90DF90FF
:1016C000CF90BF90AF909F908F907F906F905F90E2
:1016D0004F9008950C94880A0F931F93CF93DF9334
:1016E000EC010E94880A8C01CE010E940E09800F35
:1016F000911FDF91CF911F910F91089580E090E0AD
:101700000895089508951F920F920FB60F92112415
:101710002F933F938F939F93AF93BF9380919502A5
:1017200090919602A0919702B091980230919D02FB
:1017300023E0230F2D3720F40196A11DB11D05C014
:1017400026E8230F0296A11DB11D20939D028093D0
:10175000950290939602A0939702B093980280917D
:10176000990290919A02A0919B02B0919C020196DD
:10177000A11DB11D8093990290939A02A0939B02A0
:10178000B0939C02BF91AF919F918F913F912F9108
:101790000F900FBE0F901F9018952FB7F89460917F
:1017A00095027091960280919702909198022FBFB6
:1017B00008953FB7F8948091990290919A02A09170
:1017C0009B02B0919C0226B5A89B05C02F3F19F043
:1017D0000196A11DB11D3FBFBA2FA92F982F8827B1
:1017E000820F911DA11DB11DBC01CD0142E0660F0C
:1017F000771F881F991F4A95D1F708958F929F925E
:10180000AF92BF92CF92DF92EF92FF926B017C0179
:101810000E94D90B4B015C01C114D104E104F10415
:1018200001F10E94EA100E94D90BDC01CB0188195A
:101830009909AA09BB09883E9340A105B10560F347
:1018400021E0C21AD108E108F10888EE880E83E091
:10185000981EA11CB11CC114D104E104F10419F7B4
:10186000DBCFFF90EF90DF90CF90BF90AF909F9035
:101870008F9008958230910538F0880F991F880F56
:10188000991F05970197F1F70895789484B58260C0
:1018900084BD84B5816084BD85B5826085BD85B514
:1018A000816085BDEEE6F0E0808181608083E1E8C3
:1018B000F0E01082808182608083808181608083FB
:1018C000E0E8F0E0808181608083E1E9F0E0808100
:1018D00082608083808181608083E0E9F0E08081A4
:1018E00081608083E1ECF0E080818460808380818E
:1018F00082608083808181608083E3ECF0E080817E
:1019000081608083E0ECF0E0808182608083E2ECA3
:10191000F0E0808181608083EAE7F0E0808184608C
:1019200080838081826080838081816080838081E8
:101930008068808308954091A5025091A60220916D
:10194000A3023091A40242175307B4F49091E80027
:101950009570E1F39091E80092FD19C08093F10039
:101960008091A5029091A60201968F739927892BE9
:1019700019F48EEF8093E8008091A5029091A60261
:1019800001969093A6028093A50281E0089580E0DD
:101990000895CF92DF92EF92FF920F931F93CF9310
:1019A000DF931F92CDB7DEB7182F062FE42E862FB8
:1019B000880F8E5F99830E949B0C83E00E949B0C92
:1019C000F12EC12E9981D92E8C2D8F19801798F464
:1019D000F601E7FE02C0849101C080810E949B0C49
:1019E000182F80E00E949B0C8123FFEFCF1ADF0AA3
:1019F0008111EACF01C081E00F90DF91CF911F915B
:101A00000F91FF90EF90DF90CF9008958091D700D5
:101A100081608093D70080EA8093D80089B5806187
:101A200089BD89B5826089BD09B400FEFDCF61E042
:101A300070E080E090E00E94FE0B8091D8008F7CE7
:101A400080618093D8008091E000807F8093E000E7
:101A50000895CF93DF931F92CDB7DEB71982CE01E1
:101A600001960E944D110E940613BE016F5F7F4FC9
:101A70000E943A1289810F90DF91CF910895809151
:101A8000A1020895CF93DF931F92CDB7DEB7682FE1
:101A9000CE0101960E94E8138091F20099819FBFC8
:101AA0000F90DF91CF910895EF92FF920F931F93C4
:101AB000CF93DF931F92CDB7DEB79091A102992308
:101AC00011F057FF03C08FEF9FEF26C08A017B0103
:101AD000682FCE0101960E94E8138091F20090E0F9
:101AE000A801801791070CF4AC01842FF7018150F5
:101AF00020F09091F1009193FACF4115510521F01A
:101B00008091F200882321F089818FBFCA0104C02F
:101B10008BE68093E800F8CF0F90DF91CF911F9173
:101B20000F91FF90EF900895CF93DF931F92CDB761
:101B3000DEB741E050E0BE016F5F7F4F0E94540D61
:101B4000019719F4898190E002C08FEF9FEF0F9009
:101B5000DF91CF910895CF93DF931F92CDB7DEB77A
:101B6000682FCE0101960E94E8139091E800892F1A
:101B7000807295FF04C09091F20080E4891B9981E6
:101B80009FBF0F90DF91CF9108955F926F927F92E8
:101B90008F929F92AF92BF92CF92DF92EF92FF927D
:101BA0000F931F93CF93DF931F92CDB7DEB7582EBD
:101BB0006B01B42E052F8091A102811103C08FEF1C
:101BC0009FEF77C080919F0280FF05C08091E00069
:101BD00082608093E000EB2CF02EA12C8AEF982EEF
:101BE000852D8072782E852D8074682E9AE3892E3B
:101BF000E114F10409F456C0852D0E94AB0D182F95
:101C000081110AC09A949920D1F261E070E080E0DD
:101C100090E00E94FE0BECCF90E0E816F9060CF481
:101C20001E2D652DCE0101960E94E8138091E800DB
:101C300085FF35C0212F30E0E21AF30A772029F022
:101C40001150A8F01092F100FBCFF60157FE07C02B
:101C5000115058F084918093F1003196F9CF1150D2
:101C600020F081918093F100FACFC20ED31EAA20FA
:101C700019F08092E8000BC08091E80085FD09C052
:101C80008092E800AA24A394E114F10441F0A12C6D
:101C900006C0E114F10419F461108092E800898112
:101CA0008FBFA6CFA110A8CF84E68093A2028B2D70
:101CB000902F0F90DF91CF911F910F91FF90EF9098
:101CC000DF90CF90BF90AF909F908F907F906F905C
:101CD0005F9008951092E9001092A6021092A5025A
:101CE0009093A4028093A3020895DF92EF92FF9253
:101CF0000F931F93CF93DF93D82E8A017B01E40EBD
:101D0000F51EEB01CE15DF0571F0D7FE03C0FE0115
:101D1000849101C088810E949B0C21968111F2CF91
:101D20008FEF9FEF01C0C801DF91CF911F910F91FD
:101D3000FF90EF90DF900895CF93DC019B018BEF34
:101D400021153105E1F0A9012134310514F040E4F9
:101D500050E09091E80092FFFCCF942FFB01E21B32
:101D6000F30BEA0FFB1F915028F0C091F100C083E4
:101D70003196F9CF8093E800241B350BE1CFCB01DE
:101D8000CF9108951F920F920FB60F921124CF9208
:101D9000DF92EF92FF920F931F932F933F934F93F6
:101DA0005F936F937F938F939F93AF93BF93EF93C3
:101DB000FF93CF93DF93CDB7DEB76C97DEBFCDBF78
:101DC0001092E9008091E80083FF1AC1FE01759628
:101DD000FE2E0F2F88E08E0F8E1729F09091F100C4
:101DE00090833196F9CF82EF8093E8002D8927FF09
:101DF00005C08091E80080FFFCCF03C08EEF809388
:101E0000E800822F807609F0E0C03E894F89188D66
:101E100031110CC0203829F48091A0028093F10088
:101E200002C01092F1001092F100E3C0E42FF0E044
:101E3000F12B313049F42111DCC0319709F0D9C0C0
:101E40008091A0028D7F0AC0333059F42111D1C096
:101E5000319709F0CEC08091A00282608093A002E9
:101E6000C8C0353041F48091E80080FFFCCF406865
:101E70004093E300BEC0363009F07DC0CB8CDC8CD3
:101E8000123069F580E090E00E946A0E0E94290DF0
:101E900099E09E012F5F3F4F7901F901292F11929F
:101EA0002A95E9F799831A8391E09E8390EA9887AF
:101EB0009AEF99872091A5023091A602275F3F4FA4
:101EC0003C832B838D83C6010E946A0E49E050E05B
:101ED000B70180E00E94750E0E94290D8AC0C601DC
:101EE0000E946A0E0E9406136F2D702F0E946312CB
:101EF000009719F00CF07DC080C0113061F11330F3
:101F000009F07BC08F89882349F1823029F440E8A9
:101F100062E18FEF90E006C0813039F440E862E181
:101F20008CEE90E00E94C90C62C0833009F065C05D
:101F30000E9406138E010F5F1F4FB8010E9482128C
:101F4000F80101900020E9F73197BF01601B710B88
:101F500040E0C801E7CF6AED70E002C062E171E0E5
:101F60006115710509F449C0FB01449150E080E816
:101F70000E94750E3EC0373009F43FC0383021F45E
:101F800081E08093F10035C0393099F52370A9F5CF
:101F9000EBE1F1E081E021E036E39081992361F00B
:101FA0008093E9002093EB0091919093EC003093A3
:101FB000ED008F5F873089F78EE78093EA001092FB
:101FC000EA008F898093A10214C08B8D9C8D0E94A2
:101FD0006A0E898D811105C08F2D902F0E94581196
:101FE00006C00E9406136F2D702F0E94A112882335
:101FF00021F08EEF8093E80003C081E28093EB0034
:102000006C960FB6F894DEBF0FBECDBFDF91CF91B7
:10201000FF91EF91BF91AF919F918F917F916F91C0
:102020005F914F913F912F911F910F91FF90EF90F2
:10203000DF90CF900F900FBE0F901F901895809358
:10204000E9008091F200882319F08AE38093E80088
:1020500008951F920F920FB60F9211242F933F9362
:102060004F935F936F937F938F939F93AF93BF93A0
:10207000CF93EF93FF93C091E1008091E100837FC4
:102080008093E100C3FF0FC01092E90081E08093CC
:10209000EB001092EC0082E38093ED001092A1021D
:1020A00088E08093F000C2FF0CC083E00E941F1004
:1020B0008091A202882329F08091A202815080930E
:1020C000A202C4FF10C08091E2008E7E81608093E6
:1020D000E2008091E1008F7E8093E10080919F0279
:1020E0008E7E806111C0C0FF11C08091E2008E7EA3
:1020F00080618093E2008091E1008E7E8093E10018
:1021000080919F028E7E816080939F02FF91EF916C
:10211000CF91BF91AF919F918F917F916F915F917F
:102120004F913F912F910F900FBE0F901F901895D8
:10213000CF93C091E40063E070E080E090E00E9403
:10214000FE0B9091E40081E0C91301C080E0CF91C3
:10215000089508951092A1021092A00210929F0279
:102160000E94060D8091E1008E7E8093E1008DE05B
:102170008093E200EEEFFFE7859194918B3F9C4DB9
:1021800019F481E08093F702089508959091A102D7
:1021900081E0911101C080E0089508958091E000F0
:1021A0008D7F8093E0008091E00081FD08C08091E8
:1021B0009F0280FF04C08091A00281FD02C080E0E8
:1021C00008950E94060D8091E00082608093E000F7
:1021D00081E008950895CF93DF931F92CDB7DEB7C6
:1021E0006983DC01ED91FC910280F381E02D41E0F7
:1021F00050E0BE016F5F7F4F09950F90DF91CF9147
:102200000895CF93DF93EC018C859D8597FF05C0E2
:1022100082E00E94940D9D878C878C859D85DF913F
:10222000CF91089583E00E94AB0D90E0089583E084
:102230000C941F10FC018485958597FD06C082E0F3
:102240000E94420D90E00196089582E00E94420DA6
:1022500090E00895FC018485958597FD05C02FEFDA
:102260003FEF35872487089582E00C94940DCF9337
:10227000DF93EC0180912C01882331F083E00E94F0
:10228000C50D1816190634F081E090E09B838A830F
:1022900080E090E0DF91CF910895FC0190819E5FF6
:1022A000908342E450E066E171E080E80C94750EA2
:1022B000FC0181819081913A59F4813209F048C042
:1022C00047E050E065E271E080E00E94750E76C064
:1022D0009132F1F5833291F49381892F90E0982F18
:1022E00088272281822BA0E0B0E080932101909387
:1022F0002201A0932301B093240160C0803239F4FD
:1023000067E070E085E291E00E949C0E06C0823298
:1023100009F054C0828180932C018091F7028823B8
:1023200019F0EEEFFAE002C0E0E0F8E0809125015C
:1023300090912601A0912701B0912801803B944003
:10234000A105B10539F480912C0180FF1FC002C0A6
:1023500080E008950FB6F894A89580916000886198
:1023600080936000109260000FBEA895EE3F8AE057
:10237000F80739F08091FE0A9091FF0A91838083DB
:102380001DC01092FF0A1092FE0A18C0EE3F2AE00C
:10239000F20731F0808191819093FF0A8093FE0AC9
:1023A00087E797E7918380839BE088E10FB6F894F5
:1023B000A895809360000FBE9093600081E008951F
:1023C0002FEF3FEFFC013587248708952FEF3FEF74
:1023D000FC013587248708950895CF93C0912C017F
:1023E0006AE070E080E090E00E94FE0B81E0C111A5
:1023F00001C080E0CF9108952FB7F8946091250136
:102400007091260180912701909128012FBF089596
:1024100080912901089580912A01089580912B01CE
:10242000089580912C018170089580912C018695EA
:1024300081700895CF92DF92EF92FF922FB7F894B8
:1024400060912101709122018091230190912401DA
:10245000CC24CA94DC2C7601C0922101D0922201B6
:10246000E0922301F09224012FBFFF90EF90DF90C4
:10247000CF900895EF92FF920F931F93CF93DF9326
:102480007B01FC01C281D38100E010E0209781F044
:10249000E881F9810280F381E02DB701CE01099531
:1024A00097FD08C0080F191F0884D985C02DEECFED
:1024B000C80102C08FEF9FEFDF91CF911F910F9165
:1024C000FF90EF9008950F931F93CF93DF938B01AD
:1024D000FC01C281D381209771F0E881F9810480E9
:1024E000F581E02DB801CE010995009731F40884FB
:1024F000D985C02DF0CF80E090E0DF91CF911F9182
:102500000F9108950F931F93CF93DF938B01FC01DD
:10251000C281D381209771F0E881F9810680F7812B
:10252000E02DB801CE010995080F111D0884D98549
:10253000C02DF0CFF8011082DF91CF911F910F9144
:1025400008950F931F93CF93DF938B01FC01C281FA
:10255000D381209771F0E881F9810190F081E02D1D
:10256000B801CE010995811105C00884D985C02D17
:10257000F0CF80E0DF91CF911F910F910895CF931D
:10258000DF93FC01DB01218114968C91149790E07C
:10259000820F911D0897B4F5C281D381209719F459
:1025A0007383628308C088859985009711F0EC01D8
:1025B000FACFB987A887808112968C931297818170
:1025C00013968C931397908115968C911597890F7C
:1025D000808380E014969C911497891788F416964E
:1025E000CD91DC911797C80FD11D9881C181D0E0A2
:1025F000C65EDE4F988391819F5F91838F5FEACFA4
:1026000081E001C080E0DF91CF9108958091FC02CC
:1026100081110DC082E08093F80284E08093F9027A
:102620001092FB021092FA0281E08093FC0288EF84
:1026300092E00895FC0182E0808384E0818313822C
:10264000128208952E98269A2D98259A2A98229AD1
:102650002998219A80EA8093800081E1809381000B
:1026600080E991E090938700809386001092890022
:102670001092880010928B0010928A000895809327
:1026800005030895809304030895CF93DF93EC012D
:102690000E940514D7FF05C0D195C195D10981E0ED
:1026A00001C080E0C13991E0D90714F0C0E9D1E060
:1026B000D0938B00C0938A0090910503891711F085
:1026C0002A9A01C02A98229ADF91CF910895CF9338
:1026D000DF93EC010E940514D7FF05C0D195C19589
:1026E000D10981E001C080E0C13991E0D90714F03F
:1026F000C0E9D1E0D0938900C09388009091040391
:10270000891711F0299A01C02998219ADF91CF9158
:102710000895CF93DF93EB010E944513CE01DF9123
:10272000CF910C946713E8EFF1E01382128288EEE8
:1027300093E0A0E0B0E084839583A683B78383EB26
:1027400091E0918380838DEC90E0958784878CEC79
:1027500090E09787868788EC90E0918B808B89EC5E
:1027600090E0938B828B8AEC90E0958B848B8EEC3F
:1027700090E0978B868B118E128E138E148E089597
:102780006115710579F0FB0101900020E9F731979F
:10279000AF01461B570BDC01ED91FC910280F381E8
:1027A000E02D099480E090E008950E94450C0E947D
:1027B000810B8EE992E00E94AA100E94D800CDE120
:1027C000D7E00E9483032097E1F30E941D07F9CF11
:1027D0002FB7FC012083F89467706093E900089597
:1027E000E7EAF2E01382128288EE93E0A0E0B0E024
:1027F00084839583A683B78384ED91E0918380835E
:102800008FEF9FEF9587848708958091060381114C
:1028100005C081E0809306030C9422130895A1E281
:102820001A2EAA1BBB1BFD010DC0AA1FBB1FEE1F4A
:10283000FF1FA217B307E407F50720F0A21BB30B95
:10284000E40BF50B661F771F881F991F1A9469F711
:1028500060957095809590959B01AC01BD01CF016D
:102860000895EE0FFF1F0590F491E02D0994505844
:10287000BB27AA270E944F140C941F160E94111602
:1028800038F00E94181620F039F49F3F19F426F40E
:102890000C94E7150EF4E095E7FB0C94E115E92F95
:1028A0000E94301658F3BA1762077307840795071A
:1028B00020F079F4A6F50C9452160EF4E0950B2E48
:1028C000BA2FA02D0B01B90190010C01CA01A00182
:1028D0001124FF27591B99F0593F50F4503E68F1DD
:1028E0001A16F040A22F232F342F4427585FF3CF1E
:1028F000469537952795A795F0405395C9F77EF4EF
:102900001F16BA0B620B730B840BBAF09150A1F037
:10291000FF0FBB1F661F771F881FC2F70EC0BA0FBD
:10292000621F731F841F48F4879577956795B79545
:10293000F7959E3F08F0B0CF9395880F08F0992740
:10294000EE0F979587950895DF93DD27B92FBF7711
:1029500040E85FE31616170648075B0718F4D92FFF
:102960000E945E169F938F937F936F930E94191717
:10297000ECEAF0E00E94EA150E941F162F913F91A9
:102980004F915F910E947916DD2351F09058A2EA91
:102990002AED3FE049EC5FE3D0785D270E944F14B9
:1029A000DF910C941F160E94BD1508F481E0089574
:1029B0000E94EC140C941F160E94181658F00E94E6
:1029C000111640F029F45F3F29F00C94E1155111E4
:1029D0000C9453160C94E7150E94301668F3992353
:1029E000B1F3552391F3951B550BBB27AA2762170B
:1029F0007307840738F09F5F5F4F220F331F441F18
:102A0000AA1FA9F335D00E2E3AF0E0E832D091504B
:102A10005040E695001CCAF72BD0FE2F29D0660F38
:102A2000771F881FBB1F261737074807AB07B0E87B
:102A300009F0BB0B802DBF01FF2793585F4F3AF081
:102A40009E3F510578F00C94E1150C9453165F3FAE
:102A5000E4F3983ED4F3869577956795B795F79507
:102A60009F5FC9F7880F911D9695879597F90895EF
:102A7000E1E0660F771F881FBB1F6217730784078B
:102A8000BA0720F0621B730B840BBA0BEE1F88F79A
:102A9000E09508950E9451156894B1110C94531655
:102AA00008950E94381688F09F5798F0B92F9927FB
:102AB000B751B0F0E1F0660F771F881F991F1AF029
:102AC000BA95C9F714C0B13091F00E945216B1E026
:102AD00008950C945216672F782F8827B85F39F025
:102AE000B93FCCF3869577956795B395D9F73EF4C2
:102AF00090958095709561957F4F8F4F9F4F08956A
:102B0000E89409C097FB3EF4909580957095619587
:102B10007F4F8F4F9F4F9923A9F0F92F96E9BB273D
:102B20009395F695879577956795B795F111F8CFB9
:102B3000FAF4BB0F11F460FF1BC06F5F7F4F8F4F24
:102B40009F4F16C0882311F096E911C0772321F01A
:102B50009EE8872F762F05C0662371F096E8862FB2
:102B600070E060E02AF09A95660F771F881FDAF709
:102B7000880F9695879597F90895990F0008550F36
:102B8000AA0BE0E8FEEF16161706E807F907C0F0F3
:102B900012161306E407F50798F0621B730B840BFB
:102BA000950B39F40A2661F0232B242B252B21F4D5
:102BB00008950A2609F4A140A6958FEF811D811D75
:102BC000089597F99F6780E870E060E008959FEFAF
:102BD00080EC0895DF93CF931F930F93FF92EF92B2
:102BE000DF927B018C01689406C0DA2EEF010E940F
:102BF0007916FE01E894A59125913591459155915D
:102C0000A6F3EF010E944F14FE019701A801DA9488
:102C100069F7DF90EF90FF900F911F91CF91DF91B7
:102C2000089500240A941616170618060906089532
:102C300000240A9412161306140605060895092E98
:102C40000394000C11F4882352F0BB0F40F4BF2B07
:102C500011F460FF04C06F5F7F4F8F4F9F4F089547
:102C600057FD9058440F551F59F05F3F71F047953D
:102C7000880F97FB991F61F09F3F79F08795089522
:102C8000121613061406551FF2CF4695F1DF08C041
:102C9000161617061806991FF1CF8695710561055E
:102CA00008940895E894BB2766277727CB0197F906
:102CB00008950E94BD1508F48FEF08959B01AC01A3
:102CC00060E070E080E89FE30C94D8140E947916CD
:102CD0000C941F160E94111638F00E94181620F04E
:102CE000952311F00C94E1150C94E71511240C9424
:102CF00053160E94301670F3959FC1F3950F50E064
:102D0000551F629FF001729FBB27F00DB11D639F9D
:102D1000AA27F00DB11DAA1F649F6627B00DA11D43
:102D2000661F829F2227B00DA11D621F739FB00DE9
:102D3000A11D621F839FA00D611D221F749F332759
:102D4000A00D611D231F849F600D211D822F762FF2
:102D50006A2F11249F5750409AF0F1F088234AF0CF
:102D6000EE0FFF1FBB1F661F771F881F915050403B
:102D7000A9F79E3F510580F00C94E1150C94531671
:102D80005F3FE4F3983ED4F3869577956795B795C2
:102D9000F795E7959F5FC1F7FE2B880F911D9695DC
:102DA000879597F9089519F416F40C94E7150C9487
:102DB00022170E943816B8F39923C9F3B6F39F5728
:102DC000550B87FF0E9430170024A0E640EA9001CF
:102DD00080585695979528F4805C660F771F881F5A
:102DE00020F026173707480730F4621B730B840B5B
:102DF000202931294A2BA69517940794202531259F
:102E00004A2758F7660F771F881F20F026173707C5
:102E1000480730F4620B730B840B200D311D411DEC
:102E2000A09581F7B901842F9158880F96958795C1
:102E300008959B01AC010C9466160E94BD15880B89
:102E4000990B08959F3F31F0915020F48795779525
:102E50006795B795880F911D9695879597F9089571
:102E600091505040660F771F881FD2F70895F8944D
:022E7000FFCF92
:102E72001212664B6FE1F0F0F0F03030303030304B
:102E820030300A4E4F4B4F4B010000C18081000091
:102E920000FFFFFFFF00E100000000000054582087
:102EA2004F4B005458204E4E4E4E4F4B00496E2011
:102EB20064726976650A0053656E742074686520D1
:102EC200666F6C6C6F77696E672070696E67203A07
:102ED2002020200041434B20666F722050494E470C
:102EE2000A005468657461203A005820202020208E
:102EF2003A005920202020203A002D2D2D2D2D2D55
:102F02002D2D2D2D2D2D2D2D2D2D2D2D2D2D2D2DEF
:102F12002D2D2D2D2D2D2D2D2D2D2D2D2D2D000039
:102F22000000006E079E080E074C07E006FA06EC4A
:102F3200060D0A006E616E00696E66006F766600AD
:102F420000000000EB103711121117111A112A118B
:022F520001116B
:00000001FF
